{
  "_format": "hh3-artifact-1",
  "contractName": "AgriChain",
  "sourceName": "contracts/AgriChain.sol",
  "abi": [
    {
      "inputs": [
        {
          "internalType": "address",
          "name": "_user",
          "type": "address"
        },
        {
          "internalType": "enum AgriChain.Role",
          "name": "_role",
          "type": "uint8"
        }
      ],
      "name": "assignRole",
      "outputs": [],
      "stateMutability": "nonpayable",
      "type": "function"
    },
    {
      "inputs": [],
      "name": "batchCount",
      "outputs": [
        {
          "internalType": "uint256",
          "name": "",
          "type": "uint256"
        }
      ],
      "stateMutability": "view",
      "type": "function"
    },
    {
      "inputs": [
        {
          "internalType": "uint256",
          "name": "",
          "type": "uint256"
        }
      ],
      "name": "batches",
      "outputs": [
        {
          "internalType": "uint256",
          "name": "id",
          "type": "uint256"
        },
        {
          "internalType": "string",
          "name": "cropType",
          "type": "string"
        },
        {
          "internalType": "address",
          "name": "currentOwner",
          "type": "address"
        },
        {
          "internalType": "string",
          "name": "location",
          "type": "string"
        },
        {
          "internalType": "uint256",
          "name": "timestamp",
          "type": "uint256"
        },
        {
          "internalType": "bool",
          "name": "isQualityVerified",
          "type": "bool"
        },
        {
          "internalType": "enum AgriChain.Role",
          "name": "ownerRole",
          "type": "uint8"
        }
      ],
      "stateMutability": "view",
      "type": "function"
    },
    {
      "inputs": [
        {
          "internalType": "string",
          "name": "_crop",
          "type": "string"
        },
        {
          "internalType": "string",
          "name": "_loc",
          "type": "string"
        }
      ],
      "name": "createBatch",
      "outputs": [],
      "stateMutability": "nonpayable",
      "type": "function"
    },
    {
      "inputs": [
        {
          "internalType": "uint256",
          "name": "_id",
          "type": "uint256"
        }
      ],
      "name": "getBatch",
      "outputs": [
        {
          "components": [
            {
              "internalType": "uint256",
              "name": "id",
              "type": "uint256"
            },
            {
              "internalType": "string",
              "name": "cropType",
              "type": "string"
            },
            {
              "internalType": "address",
              "name": "currentOwner",
              "type": "address"
            },
            {
              "internalType": "string",
              "name": "location",
              "type": "string"
            },
            {
              "internalType": "uint256",
              "name": "timestamp",
              "type": "uint256"
            },
            {
              "internalType": "bool",
              "name": "isQualityVerified",
              "type": "bool"
            },
            {
              "internalType": "enum AgriChain.Role",
              "name": "ownerRole",
              "type": "uint8"
            }
          ],
          "internalType": "struct AgriChain.Batch",
          "name": "",
          "type": "tuple"
        }
      ],
      "stateMutability": "view",
      "type": "function"
    },
    {
      "inputs": [
        {
          "internalType": "address",
          "name": "",
          "type": "address"
        }
      ],
      "name": "roles",
      "outputs": [
        {
          "internalType": "enum AgriChain.Role",
          "name": "",
          "type": "uint8"
        }
      ],
      "stateMutability": "view",
      "type": "function"
    },
    {
      "inputs": [
        {
          "internalType": "uint256",
          "name": "_id",
          "type": "uint256"
        }
      ],
      "name": "verifyQuality",
      "outputs": [],
      "stateMutability": "nonpayable",
      "type": "function"
    }
  ],
  "bytecode": "0x608060405234801561000f575f80fd5b506112e88061001d5f395ff3fe608060405234801561000f575f80fd5b506004361061007b575f3560e01c8063630a195b11610059578063630a195b146100e957806392b8f021146101055780639937464214610121578063b32c4d8d146101515761007b565b806306f130561461007f5780630fc801bc1461009d5780635ac44282146100b9575b5f80fd5b610087610187565b6040516100949190610908565b60405180910390f35b6100b760048036038101906100b2919061095c565b61018d565b005b6100d360048036038101906100ce919061095c565b61026c565b6040516100e09190610b8c565b60405180910390f35b61010360048036038101906100fe9190610bf9565b610474565b005b61011f600480360381019061011a9190610d63565b6104db565b005b61013b60048036038101906101369190610dd9565b6106f0565b6040516101489190610e13565b60405180910390f35b61016b6004803603810190610166919061095c565b61070c565b60405161017e9796959493929190610e92565b60405180910390f35b60025481565b60048060058111156101a2576101a1610a79565b5b5f803373ffffffffffffffffffffffffffffffffffffffff1673ffffffffffffffffffffffffffffffffffffffff1681526020019081526020015f205f9054906101000a900460ff1660058111156101fd576101fc610a79565b5b1461023d576040517f08c379a000000000000000000000000000000000000000000000000000000000815260040161023490610f57565b60405180910390fd5b6001805f8481526020019081526020015f206005015f6101000a81548160ff0219169083151502179055505050565b61027461088e565b60015f8381526020019081526020015f206040518060e00160405290815f82015481526020016001820180546102a990610fa2565b80601f01602080910402602001604051908101604052809291908181526020018280546102d590610fa2565b80156103205780601f106102f757610100808354040283529160200191610320565b820191905f5260205f20905b81548152906001019060200180831161030357829003601f168201915b50505050508152602001600282015f9054906101000a900473ffffffffffffffffffffffffffffffffffffffff1673ffffffffffffffffffffffffffffffffffffffff1673ffffffffffffffffffffffffffffffffffffffff16815260200160038201805461038e90610fa2565b80601f01602080910402602001604051908101604052809291908181526020018280546103ba90610fa2565b80156104055780601f106103dc57610100808354040283529160200191610405565b820191905f5260205f20905b8154815290600101906020018083116103e857829003601f168201915b5050505050815260200160048201548152602001600582015f9054906101000a900460ff161515151581526020016005820160019054906101000a900460ff16600581111561045757610456610a79565b5b600581111561046957610468610a79565b5b815250509050919050565b805f808473ffffffffffffffffffffffffffffffffffffffff1673ffffffffffffffffffffffffffffffffffffffff1681526020019081526020015f205f6101000a81548160ff021916908360058111156104d2576104d1610a79565b5b02179055505050565b60028060058111156104f0576104ef610a79565b5b5f803373ffffffffffffffffffffffffffffffffffffffff1673ffffffffffffffffffffffffffffffffffffffff1681526020019081526020015f205f9054906101000a900460ff16600581111561054b5761054a610a79565b5b1461058b576040517f08c379a000000000000000000000000000000000000000000000000000000000815260040161058290610f57565b60405180910390fd5b60025f81548092919061059d90610fff565b91905055506040518060e0016040528060025481526020018481526020013373ffffffffffffffffffffffffffffffffffffffff1681526020018381526020014281526020015f15158152602001600260058111156105ff576105fe610a79565b5b81525060015f60025481526020019081526020015f205f820151815f0155602082015181600101908161063291906111e3565b506040820151816002015f6101000a81548173ffffffffffffffffffffffffffffffffffffffff021916908373ffffffffffffffffffffffffffffffffffffffff160217905550606082015181600301908161068e91906111e3565b506080820151816004015560a0820151816005015f6101000a81548160ff02191690831515021790555060c08201518160050160016101000a81548160ff021916908360058111156106e3576106e2610a79565b5b0217905550905050505050565b5f602052805f5260405f205f915054906101000a900460ff1681565b6001602052805f5260405f205f91509050805f01549080600101805461073190610fa2565b80601f016020809104026020016040519081016040528092919081815260200182805461075d90610fa2565b80156107a85780601f1061077f576101008083540402835291602001916107a8565b820191905f5260205f20905b81548152906001019060200180831161078b57829003601f168201915b505050505090806002015f9054906101000a900473ffffffffffffffffffffffffffffffffffffffff16908060030180546107e290610fa2565b80601f016020809104026020016040519081016040528092919081815260200182805461080e90610fa2565b80156108595780601f1061083057610100808354040283529160200191610859565b820191905f5260205f20905b81548152906001019060200180831161083c57829003601f168201915b505050505090806004015490806005015f9054906101000a900460ff16908060050160019054906101000a900460ff16905087565b6040518060e001604052805f8152602001606081526020015f73ffffffffffffffffffffffffffffffffffffffff168152602001606081526020015f81526020015f151581526020015f60058111156108ea576108e9610a79565b5b81525090565b5f819050919050565b610902816108f0565b82525050565b5f60208201905061091b5f8301846108f9565b92915050565b5f604051905090565b5f80fd5b5f80fd5b61093b816108f0565b8114610945575f80fd5b50565b5f8135905061095681610932565b92915050565b5f602082840312156109715761097061092a565b5b5f61097e84828501610948565b91505092915050565b610990816108f0565b82525050565b5f81519050919050565b5f82825260208201905092915050565b5f5b838110156109cd5780820151818401526020810190506109b2565b5f8484015250505050565b5f601f19601f8301169050919050565b5f6109f282610996565b6109fc81856109a0565b9350610a0c8185602086016109b0565b610a15816109d8565b840191505092915050565b5f73ffffffffffffffffffffffffffffffffffffffff82169050919050565b5f610a4982610a20565b9050919050565b610a5981610a3f565b82525050565b5f8115159050919050565b610a7381610a5f565b82525050565b7f4e487b71000000000000000000000000000000000000000000000000000000005f52602160045260245ffd5b60068110610ab757610ab6610a79565b5b50565b5f819050610ac782610aa6565b919050565b5f610ad682610aba565b9050919050565b610ae681610acc565b82525050565b5f60e083015f830151610b015f860182610987565b5060208301518482036020860152610b1982826109e8565b9150506040830151610b2e6040860182610a50565b5060608301518482036060860152610b4682826109e8565b9150506080830151610b5b6080860182610987565b5060a0830151610b6e60a0860182610a6a565b5060c0830151610b8160c0860182610add565b508091505092915050565b5f6020820190508181035f830152610ba48184610aec565b905092915050565b610bb581610a3f565b8114610bbf575f80fd5b50565b5f81359050610bd081610bac565b92915050565b60068110610be2575f80fd5b50565b5f81359050610bf381610bd6565b92915050565b5f8060408385031215610c0f57610c0e61092a565b5b5f610c1c85828601610bc2565b9250506020610c2d85828601610be5565b9150509250929050565b5f80fd5b5f80fd5b7f4e487b71000000000000000000000000000000000000000000000000000000005f52604160045260245ffd5b610c75826109d8565b810181811067ffffffffffffffff82111715610c9457610c93610c3f565b5b80604052505050565b5f610ca6610921565b9050610cb28282610c6c565b919050565b5f67ffffffffffffffff821115610cd157610cd0610c3f565b5b610cda826109d8565b9050602081019050919050565b828183375f83830152505050565b5f610d07610d0284610cb7565b610c9d565b905082815260208101848484011115610d2357610d22610c3b565b5b610d2e848285610ce7565b509392505050565b5f82601f830112610d4a57610d49610c37565b5b8135610d5a848260208601610cf5565b91505092915050565b5f8060408385031215610d7957610d7861092a565b5b5f83013567ffffffffffffffff811115610d9657610d9561092e565b5b610da285828601610d36565b925050602083013567ffffffffffffffff811115610dc357610dc261092e565b5b610dcf85828601610d36565b9150509250929050565b5f60208284031215610dee57610ded61092a565b5b5f610dfb84828501610bc2565b91505092915050565b610e0d81610acc565b82525050565b5f602082019050610e265f830184610e04565b92915050565b5f82825260208201905092915050565b5f610e4682610996565b610e508185610e2c565b9350610e608185602086016109b0565b610e69816109d8565b840191505092915050565b610e7d81610a3f565b82525050565b610e8c81610a5f565b82525050565b5f60e082019050610ea55f83018a6108f9565b8181036020830152610eb78189610e3c565b9050610ec66040830188610e74565b8181036060830152610ed88187610e3c565b9050610ee760808301866108f9565b610ef460a0830185610e83565b610f0160c0830184610e04565b98975050505050505050565b7f4e6f7420617574686f72697a65640000000000000000000000000000000000005f82015250565b5f610f41600e83610e2c565b9150610f4c82610f0d565b602082019050919050565b5f6020820190508181035f830152610f6e81610f35565b9050919050565b7f4e487b71000000000000000000000000000000000000000000000000000000005f52602260045260245ffd5b5f6002820490506001821680610fb957607f821691505b602082108103610fcc57610fcb610f75565b5b50919050565b7f4e487b71000000000000000000000000000000000000000000000000000000005f52601160045260245ffd5b5f611009826108f0565b91507fffffffffffffffffffffffffffffffffffffffffffffffffffffffffffffffff820361103b5761103a610fd2565b5b600182019050919050565b5f819050815f5260205f209050919050565b5f6020601f8301049050919050565b5f82821b905092915050565b5f600883026110a27fffffffffffffffffffffffffffffffffffffffffffffffffffffffffffffffff82611067565b6110ac8683611067565b95508019841693508086168417925050509392505050565b5f819050919050565b5f6110e76110e26110dd846108f0565b6110c4565b6108f0565b9050919050565b5f819050919050565b611100836110cd565b61111461110c826110ee565b848454611073565b825550505050565b5f90565b61112861111c565b6111338184846110f7565b505050565b5b818110156111565761114b5f82611120565b600181019050611139565b5050565b601f82111561119b5761116c81611046565b61117584611058565b81016020851015611184578190505b61119861119085611058565b830182611138565b50505b505050565b5f82821c905092915050565b5f6111bb5f19846008026111a0565b1980831691505092915050565b5f6111d383836111ac565b9150826002028217905092915050565b6111ec82610996565b67ffffffffffffffff81111561120557611204610c3f565b5b61120f8254610fa2565b61121a82828561115a565b5f60209050601f83116001811461124b575f8415611239578287015190505b61124385826111c8565b8655506112aa565b601f19841661125986611046565b5f5b828110156112805784890151825560018201915060208501945060208101905061125b565b8683101561129d5784890151611299601f8916826111ac565b8355505b6001600288020188555050505b50505050505056fea2646970667358221220237f470f5ff4fc3208c57ca57db865b3ba450f2c89e8b0b6af9821374940d89764736f6c63430008180033",
  "linkReferences": {},
  "deployedLinkReferences": {},
  "immutableReferences": {},
  "inputSourceName": "project/contracts/AgriChain.sol",
  "buildInfoId": "solc-0_8_24-054a3a15275eedfab48754787809f265202a6145"
}